{
  "_format": "hh-sol-artifact-1",
  "contractName": "Notary",
  "sourceName": "contracts/Notary.sol",
  "abi": [
    {
      "inputs": [
        {
          "internalType": "bytes32",
          "name": "",
          "type": "bytes32"
        }
      ],
      "name": "documents",
      "outputs": [
        {
          "internalType": "uint256",
          "name": "timestamp",
          "type": "uint256"
        },
        {
          "internalType": "address",
          "name": "owner",
          "type": "address"
        }
      ],
      "stateMutability": "view",
      "type": "function"
    },
    {
      "inputs": [
        {
          "internalType": "string",
          "name": "hash",
          "type": "string"
        }
      ],
      "name": "notarizeFile",
      "outputs": [],
      "stateMutability": "nonpayable",
      "type": "function"
    },
    {
      "inputs": [
        {
          "internalType": "string",
          "name": "hash",
          "type": "string"
        }
      ],
      "name": "verifyDocument",
      "outputs": [
        {
          "internalType": "uint256",
          "name": "",
          "type": "uint256"
        },
        {
          "internalType": "address",
          "name": "",
          "type": "address"
        }
      ],
      "stateMutability": "view",
      "type": "function"
    }
  ],
  "bytecode": "0x6080604052348015600f57600080fd5b506106a88061001f6000396000f3fe608060405234801561001057600080fd5b50600436106100415760003560e01c80632b2805db146100465780636c9c83f814610077578063beee5eb714610093575b600080fd5b610060600480360381019061005b919061032e565b6100c4565b60405161006e9291906103b5565b60405180910390f35b610091600480360381019061008c9190610524565b610108565b005b6100ad60048036038101906100a89190610524565b610220565b6040516100bb9291906103b5565b60405180910390f35b60006020528060005260406000206000915090508060000154908060010160009054906101000a900473ffffffffffffffffffffffffffffffffffffffff16905082565b60008160405160200161011b91906105de565b6040516020818303038152906040528051906020012090506000806000838152602001908152602001600020600001541461018b576040517f08c379a000000000000000000000000000000000000000000000000000000000815260040161018290610652565b60405180910390fd5b60405180604001604052804281526020013373ffffffffffffffffffffffffffffffffffffffff168152506000808381526020019081526020016000206000820151816000015560208201518160010160006101000a81548173ffffffffffffffffffffffffffffffffffffffff021916908373ffffffffffffffffffffffffffffffffffffffff1602179055509050505050565b60008060008360405160200161023691906105de565b6040516020818303038152906040528051906020012090506000806000838152602001908152602001600020604051806040016040529081600082015481526020016001820160009054906101000a900473ffffffffffffffffffffffffffffffffffffffff1673ffffffffffffffffffffffffffffffffffffffff1673ffffffffffffffffffffffffffffffffffffffff1681525050905080600001518160200151935093505050915091565b6000604051905090565b600080fd5b600080fd5b6000819050919050565b61030b816102f8565b811461031657600080fd5b50565b60008135905061032881610302565b92915050565b600060208284031215610344576103436102ee565b5b600061035284828501610319565b91505092915050565b6000819050919050565b61036e8161035b565b82525050565b600073ffffffffffffffffffffffffffffffffffffffff82169050919050565b600061039f82610374565b9050919050565b6103af81610394565b82525050565b60006040820190506103ca6000830185610365565b6103d760208301846103a6565b9392505050565b600080fd5b600080fd5b6000601f19601f8301169050919050565b7f4e487b7100000000000000000000000000000000000000000000000000000000600052604160045260246000fd5b610431826103e8565b810181811067ffffffffffffffff821117156104505761044f6103f9565b5b80604052505050565b60006104636102e4565b905061046f8282610428565b919050565b600067ffffffffffffffff82111561048f5761048e6103f9565b5b610498826103e8565b9050602081019050919050565b82818337600083830152505050565b60006104c76104c284610474565b610459565b9050828152602081018484840111156104e3576104e26103e3565b5b6104ee8482856104a5565b509392505050565b600082601f83011261050b5761050a6103de565b5b813561051b8482602086016104b4565b91505092915050565b60006020828403121561053a576105396102ee565b5b600082013567ffffffffffffffff811115610558576105576102f3565b5b610564848285016104f6565b91505092915050565b600081519050919050565b600081905092915050565b60005b838110156105a1578082015181840152602081019050610586565b60008484015250505050565b60006105b88261056d565b6105c28185610578565b93506105d2818560208601610583565b80840191505092915050565b60006105ea82846105ad565b915081905092915050565b600082825260208201905092915050565b7f416c7265616479206e6f746172697a6564000000000000000000000000000000600082015250565b600061063c6011836105f5565b915061064782610606565b602082019050919050565b6000602082019050818103600083015261066b8161062f565b905091905056fea26469706673582212204f2909914f82e2bccc180477a023c62f5329e7edd5c0b1ef1079a9dd36eee13564736f6c634300081c0033",
  "linkReferences": {},
  "deployedLinkReferences": {}
}